:100000000C9461000C947E000C947E000C947E0095
:100010000C947E000C947E000C947E000C947E0068
:100020000C947E000C947E000C947E000C947E0058
:100030000C947E000C947E000C949A030C947E0029
:100040000C947E000C947E000C947E000C947E0038
:100050000C947E000C947E000C947E000C947E0028
:100060000C947E000C947E0008000000BE9224498F
:10007000123EABAAAA2ABECDCCCC4C3E00000080DA
:10008000BEABAAAAAA3E00000000BF000000803F4D
:100090000000000000084178D3BB4387D1133D190D
:1000A0000E3CC3BD4282AD2B3E68EC8276BED98F3A
:1000B000E1A93E4C80EFFFBE01C4FF7F3F0000007E
:1000C000000011241FBECFEFD8E0DEBFCDBF11E08E
:1000D000A0E0B1E0E2ECF5E102C005900D92A034A1
:1000E000B107D9F721E0A0E4B1E001C01D92A43529
:1000F000B207E1F70E949A010C94DF0A0C94000009
:1001000080E480937C0087E880937A000895ECE790
:10011000F0E09081907F8F70892B8083EAE7F0E098
:10012000808180648083808186FDFDCF809178000E
:10013000909179000895611113C0DC01ED91FC915B
:10014000119721E030E0A90112960C9002C0440FF3
:10015000551F0A94E2F7CA019181892B8183089582
:10016000613099F4DC01ED91FC91119721E030E0D0
:10017000A90112960C9002C0440F551F0A94E2F791
:10018000CA0180959181892381830895613099F412
:10019000DC01ED91FC91119721E030E0A90112966C
:1001A0000C9002C0440F551F0A94E2F7CA019281D5
:1001B000892B82830895611114C0DC01ED91FC91BB
:1001C000119721E030E0A90112960C9002C0440F73
:1001D000551F0A94E2F7CA01809592818923828390
:1001E0000895623091F4DC01ED91FC91119721E0CA
:1001F00030E0A90112960C9002C0440F551F0A94DA
:10020000E2F7CA0192818927828308951F93CF93D1
:10021000DF93162FFC01C081D181AE0160E070E058
:100220001230A8F03296DE0191E0219131912C1725
:100230003D0708F4E901A217B30708F4D901420FFA
:10024000531F611D711D9F5F1913EFCF01C0DE01A8
:10025000AC0FBD1FCB01BA016A1B7B0B8109910951
:10026000212F30E022503109032E000C440B550B96
:100270000E94D307C901DF91CF911F910895BC015E
:1002800080E090E00E94140620E030EC4FE754E458
:100290000E946C0523E333E343E950E40E94F20635
:1002A0009B01AC0163E373E383E990E40E946C0576
:1002B00020E030E040E85FE30E94FF0420E030E609
:1002C0004AEE57E40E94F20620E030E64AEE57E498
:1002D0000E946C050E94AA0623E333E145E953E43A
:1002E0000E94F20620E030E447E655E40E94000553
:1002F0009B01AC0168E979EA86E899E40E946C0503
:1003000023E333E948E853E40E94FF040895CF93C0
:10031000DF93EC0163E080E00E946D03AE01DD0F2E
:10032000660B770B80E00E9488020E945A03DF91DF
:10033000CF910895CF93DF93CDB7DEB7AA970FB6CD
:10034000F894DEBF0FBECDBF60E083E091E00E9475
:100350009B000E94BF030E94800060E875E280E07D
:1003600090E00E94E1030E94860380E091E00E94F9
:10037000370378946E012BE2C20ED11C0F2EF6E0EB
:100380008F2EF1E09F2EF02DCE0101967C010F2ED5
:10039000F4E1AF2EF1E0BF2EF02D0F2EF7E26F2E1D
:1003A000F1E07F2EF02D0E94D803009144011091BE
:1003B00045012091460130914701DC01CB01801BB2
:1003C000910BA20BB30B883E9340A105B10578F0C9
:1003D00062E083E091E00E94C6000E94D80360932F
:1003E00044017093450180934601909347010E9418
:1003F000D8030091400110914101209142013091B8
:100400004301DC01CB01801B910BA20BB30B883E97
:100410009340A105B10538F20E94D80360934001D2
:100420007093410180934201909343018E010F5DCF
:100430001F4F82E00E948700F801819391938F0102
:10044000EC15FD05B1F765E0CE0181960E9406012D
:10045000082F192F9F938F939F928F92FF92EF9265
:100460000E94F507682FC7010E94E304802F912F97
:100470000E943F010E945F070E94DE05462E572E14
:100480007F936F93BF92AF92FF92EF920E94F50716
:10049000682FC7010E94E304042D152D0FB6F894B0
:1004A000DEBF0FBECDBF112314F400E010E0C80181
:1004B0000E9487011F930F937F926F92FF92EF929A
:1004C0000E94F507682FC7010E94E3040F900F9068
:1004D0000F900F900F900F9066CFCF93DF93D82F90
:1004E000C62F60E080914801909149010E94C600AA
:1004F0008D2F0E9494038C2F0E94940361E08091C1
:100500004801909149010E94C600DF91CF91089562
:100510002F923F925F926F927F928F929F92AF92B3
:10052000BF92CF92DF92EF92FF920F931F93CF93E0
:10053000DF9300D000D01F92CDB7DEB7582E49838D
:100540005A836B837C83452B462B472B09F461C070
:10055000682E712C63E0661671040CF05CC0130108
:1005600089809A80AB80BC80C12CD12C7601C39449
:100570001D82C501B4012AE030E040E050E00E9455
:10058000D30749015A018101035B1E4F69817A81BA
:100590008B819C81A70196010E94D307CA01B901F2
:1005A0002AE030E040E050E00E94D307FB01EB5C22
:1005B000FE4F8081D8018C93F101E65BFE4FB1E0E4
:1005C000B083ED81EF5FED83CC0CDD1CEE1CFF1CD6
:1005D000D701C601880F991FAA1FBB1F880F991F3B
:1005E000AA1FBB1FC80ED91EEA1EFB1E8114910450
:1005F000A104B10421F4FD81F33070F021C0130196
:100600006D81260E311C83E0281631040CF4B1CF25
:10061000F2CF1D8201C01D82252D30E05EE741E052
:10062000C901AD818A0F911DFC01E35BFE4F508330
:10063000FC01E65BFE4F4083AF5FAD83A33080F3E8
:100640000F900F900F900F900F90DF91CF911F910F
:100650000F91FF90EF90DF90CF90BF90AF909F9061
:100660008F907F906F905F903F902F900895909320
:1006700049018093480160E00E949B0061E0809105
:100680004801909149010E94C60060E089E00E9403
:100690006D026FE08AE00E946D0262E08BE00E94D2
:1006A0006D0261E08CE00E946D0260E08FE00E94CC
:1006B0006D0208950F931F93CF930DE411E0C0E0F6
:1006C000F80161918F01CF5F8C2F0E946D02C330C2
:1006D000B9F7CF911F910F910895282F30E0A9010C
:1006E000460F511D2417350784F4F901E35BFE4FD3
:1006F000908190789083F901E65BFE4F10828F5FC6
:10070000282F30E02417350784F30895239A259A7B
:10071000229A24988CB583608CBD8CB580618CBD89
:100720008CB580648CBD08958EBD0DB407FEFDCFE1
:100730008EB508951F920F920FB60F9211248F93CA
:100740009F93AF93BF938091500190915101A091DD
:100750005201B09153010196A11DB11D809350012A
:1007600090935101A0935201B0935301BF91AF9167
:100770009F918F910F900FBE0F901F90189584B589
:10078000826084BD89EF87BD37B525B381E090E0F5
:1007900002C0880F991F3A95E2F7822B85BBEEE6DF
:1007A000F0E080818260808385B5836085BD089597
:1007B00060915001709151018091520190915301CB
:1007C00008954F925F926F927F928F929F92AF9215
:1007D000BF92CF92DF92EF92FF92CF93DF93CDB78C
:1007E000DEB72C970FB6F894DEBF0FBECDBF6B01FE
:1007F0007C014B015C01880C991CAA1CBB1C880C59
:10080000991CAA1CBB1C880C991CAA1CBB1CC501EA
:10081000B401660F771F881F991F0E9414069B0161
:10082000AC0160E074E284E79BE40E946C0520E088
:1008300030E040E85FE30E94FF040E945F070E94EF
:10084000E50569877A878B879C87C501B4010E947B
:1008500014069B01AC0160E074E284E79BE40E9413
:100860006C0520E030E040E85FE30E94FF040E9456
:100870005F070E94E5052B013C01C701B6010E94FC
:1008800014066B017C0129853A852F5F3F4F229525
:100890003295307F3227207F322740E050E00F2E04
:1008A000812CF4E29F2EF4EFAF2EB12CF02DC50178
:1008B000B4010E94D307CA01B9010E941406A7011E
:1008C00096010E946C0520E030E040E85FE30E9462
:1008D000FF0420E030E048EC52E40E94F206698315
:1008E0007A838B839C8392012F5F3F4F220F331FAC
:1008F000220F331F220F331F40E050E0C501B40127
:100900000E94D307CA01B9010E941406A7019601EB
:100910000E946C0520E030E040E85FE30E94FF04A5
:1009200020E030E048EC52E40E94F2066D837E83C2
:100930008F83988769817A818B819C81CD80DE80CD
:10094000EF80F8840E94DE055B01772324F4AA245B
:10095000BB24A61AB70AC701B6010E94DE059B0197
:10096000772324F422273327261B370B2A153B0530
:100970003CF089859A859093C5008093C40009C096
:10098000E0ECF0E08081826080835092C50040926C
:10099000C400E1ECF0E08081886080832C960FB683
:1009A000F894DEBF0FBECDBFDF91CF91FF90EF90E7
:1009B000DF90CF90BF90AF909F908F907F906F907F
:1009C0005F904F900895CF93DF936623A9F0DC01E9
:1009D0006150262F30E02F5F3F4FAC01420F531F75
:1009E000E0ECF0E0C6ECD0E02D91908195FFFDCFDA
:1009F0002883A417B507C1F7DF91CF910895505808
:100A0000BB27AA270E9417050C9468060E945A0665
:100A100038F00E94610620F039F49F3F19F426F463
:100A20000C9457060EF4E095E7FB0C945106E92F61
:100A30000E94790658F3BA1762077307840795076F
:100A400020F079F4A6F50C949B060EF4E0950B2E9D
:100A5000BA2FA02D0B01B90190010C01CA01A00110
:100A60001124FF27591B99F0593F50F4503E68F16B
:100A70001A16F040A22F232F342F4427585FF3CFAC
:100A8000469537952795A795F0405395C9F77EF47D
:100A90001F16BA0B620B730B840BBAF09150A1F0C6
:100AA000FF0FBB1F661F771F881FC2F70EC0BA0F4C
:100AB000621F731F841F48F4879577956795B795D4
:100AC000F7959E3F08F0B0CF9395880F08F09927CF
:100AD000EE0F9795879508950E9480050C946806FF
:100AE0000E94610658F00E945A0640F029F45F3FC8
:100AF00029F00C94510651110C949C060C94570645
:100B00000E94790668F39923B1F3552391F3951B5D
:100B1000550BBB27AA2762177307840738F09F5F1E
:100B20005F4F220F331F441FAA1FA9F335D00E2E8B
:100B30003AF0E0E832D091505040E695001CCAF7F8
:100B40002BD0FE2F29D0660F771F881FBB1F2617BB
:100B500037074807AB07B0E809F0BB0B802DBF0192
:100B6000FF2793585F4F3AF09E3F510578F00C9461
:100B700051060C949C065F3FE4F3983ED4F38695AF
:100B800077956795B795F7959F5FC9F7880F911D82
:100B90009695879597F90895E1E0660F771F881F6E
:100BA000BB1F621773078407BA0720F0621B730B21
:100BB000840BBA0BEE1F88F7E09508950E94E505B7
:100BC0006894B1110C949C0608950E94810688F0E7
:100BD0009F5798F0B92F9927B751B0F0E1F0660F01
:100BE000771F881F991F1AF0BA95C9F714C0B13042
:100BF00091F00E949B06B1E008950C949B06672F2C
:100C0000782F8827B85F39F0B93FCCF38695779570
:100C10006795B395D9F73EF4909580957095619559
:100C20007F4F8F4F9F4F0895E89409C097FB3EF484
:100C300090958095709561957F4F8F4F9F4F992329
:100C4000A9F0F92F96E9BB279395F69587957795A7
:100C50006795B795F111F8CFFAF4BB0F11F460FF67
:100C60001BC06F5F7F4F8F4F9F4F16C0882311F0BF
:100C700096E911C0772321F09EE8872F762F05C0D3
:100C8000662371F096E8862F70E060E02AF09A956E
:100C9000660F771F881FDAF7880F9695879597F963
:100CA000089597F99F6780E870E060E008959FEFEE
:100CB00080EC089500240A941616170618060906F3
:100CC000089500240A9412161306140605060895C2
:100CD000092E0394000C11F4882352F0BB0F40F44A
:100CE000BF2B11F460FF04C06F5F7F4F8F4F9F4F8A
:100CF000089557FD9058440F551F59F05F3F71F00C
:100D00004795880F97FB991F61F09F3F79F0879572
:100D10000895121613061406551FF2CF4695F1DFFB
:100D200008C0161617061806991FF1CF869571058B
:100D3000610508940895E894BB2766277727CB01BF
:100D400097F9089516F00C949E070C945706689432
:100D50000C9451060E948106A8F39923C1F3AEF3C7
:100D6000DF93CF931F930F93FF92C92FDD27882323
:100D70002AF02197660F771F881FDAF720E030E00E
:100D800040E85FEB9FE3883920F0803E38F0219601
:100D90008F770E940005E8E6F0E004C00E9400059D
:100DA000E5E9F0E00E94AC078B01BE01EC01FB2EEF
:100DB0006F5771097595771F880B990B0E9416065E
:100DC00028E132E741E35FE30E940507AF2D980178
:100DD000AE01FF900F911F91CF91DF910E941705F7
:100DE0000C9468060E9405070C9468060E945A0637
:100DF00038F00E94610620F0952311F00C94510602
:100E00000C94570611240C949C060E94790670F3EA
:100E1000959FC1F3950F50E0551F629FF001729F9F
:100E2000BB27F00DB11D639FAA27F00DB11DAA1FAE
:100E3000649F6627B00DA11D661F829F2227B00DFB
:100E4000A11D621F739FB00DA11D621F839FA00D86
:100E5000611D221F749F3327A00D611D231F849FD6
:100E6000600D211D822F762F6A2F11249F5750402D
:100E70009AF0F1F088234AF0EE0FFF1FBB1F661FA8
:100E8000771F881F91505040A9F79E3F510580F071
:100E90000C9451060C949C065F3FE4F3983ED4F307
:100EA000869577956795B795F795E7959F5FC1F715
:100EB000FE2B880F911D9695879597F908950E94AE
:100EC0008106E8F09E37E8F09639B8F49E3848F489
:100ED000672F782F8827985FF9CF86957795679544
:100EE00093959539D0F3B62FB1706B0F711D811D9D
:100EF00020F487957795679593950C9483070C94C8
:100F00009E070C949C06882371F4772321F0985057
:100F1000872B762F07C0662311F499270DC09051B7
:100F2000862B70E060E02AF09A95660F771F881F85
:100F3000DAF7880F9695879597F908959F3F31F0D6
:100F4000915020F4879577956795B795880F911DF7
:100F50009695879597F90895DF93CF931F930F93F5
:100F6000FF92EF92DF927B018C01689406C0DA2E2B
:100F7000EF010E940507FE01E894A59125913591A6
:100F800045915591A6F3EF010E941705FE019701C7
:100F9000A801DA9469F7DF90EF90FF900F911F910D
:100FA000CF91DF910895A1E21A2EAA1BBB1BFD0170
:100FB0000DC0AA1FBB1FEE1FFF1FA217B307E40738
:100FC000F50720F0A21BB30BE40BF50B661F771F90
:100FD000881F991F1A9469F7609570958095909570
:100FE0009B01AC01BD01CF010895AEE0B0E0EBEF95
:100FF000F7E00C94B60A0D891E8986E08C831A836B
:1010000009838FEF9FE79E838D83AE01475E5F4F1D
:101010006F89788DCE0101960E941708EF81F885BF
:10102000E00FF11F10822E96E4E00C94D20AABE0A0
:10103000B0E0EDE1F8E00C94A80A6C017B018A01B4
:10104000FC0117821682838181FFCCC1CE010196FB
:101050003C01F6019381F70193FD859193FF819106
:101060007F01882309F4BAC1853239F493FD859153
:1010700093FF81917F01853229F4B60190E00E94AF
:101080000E0AE7CF912C212C312CFFE1F315D8F07B
:101090008B3279F038F4803279F08332A1F4232D49
:1010A00020611DC08D3261F0803369F4232D2160F1
:1010B00016C0832D8260382EE32DE4603E2E2AC0B8
:1010C000F32DF8601DC037FC2DC020ED280F2A300D
:1010D00040F08E32B9F436FC81C1232D2064322ECB
:1010E00019C036FE06C08AE0989E200D1124922E6B
:1010F00011C0EAE02E9E200D1124222EF32DF06265
:101100003F2E08C08C3621F4832D8068382E02C013
:10111000883641F4F70193FD859193FF81917F011A
:101120008111B3CF982F9F7D9554933028F40C5F95
:101130001F4F9FE399830DC0833631F0833771F0E1
:10114000833509F059C021C0F801808189830E5F81
:101150001F4F88248394912C530113C02801F2E07F
:101160004F0E511CF801A080B18036FE03C0692DDE
:1011700070E002C06FEF7FEFC5010E94030A4C01CF
:101180008201F32DFF773F2E16C0280122E0420E88
:10119000511CF801A080B18036FE03C0692D70E0BB
:1011A00002C06FEF7FEFC5010E94F8094C01F32DDB
:1011B000F0683F2E820133FC1BC0822D90E0881620
:1011C0009906B0F4B60180E290E00E940E0A2A94DB
:1011D000F4CFF50137FC859137FE81915F01B601AF
:1011E00090E00E940E0A21102A9421E0821A9108B0
:1011F0008114910471F7E8C0843611F0893641F505
:10120000F80137FE07C060817181828193810C5F94
:101210001F4F08C060817181072E000C880B990B4D
:101220000E5F1F4FF32DFF763F2E97FF09C090955D
:101230008095709561957F4F8F4F9F4FF0683F2E3F
:101240002AE030E0A3010E944A0A882E861845C091
:10125000853731F4232D2F7EB22E2AE030E025C0D1
:10126000932D997FB92E8F36C1F018F4883579F017
:10127000B5C0803719F0883721F0B0C0E92FE061A0
:10128000BE2EB4FE0DC0FB2DF460BF2E09C034FE8F
:101290000AC0292F2660B22E06C028E030E005C023
:1012A00020E130E002C020E132E0F801B7FE07C0E3
:1012B00060817181828193810C5F1F4F06C06081C4
:1012C000718180E090E00E5F1F4FA3010E944A0AE7
:1012D000882E8618FB2DFF773F2E36FE0DC0232D5E
:1012E0002E7FA22E891458F434FE0BC032FC09C0A4
:1012F000832D8E7EA82E05C0B82CA32C03C0B82C3D
:1013000001C0B92CA4FE0FC0FE01E80DF11D8081C3
:10131000803321F49A2D997EA92E09C0A2FE06C021
:10132000B394B39404C08A2D867809F0B394A3FCD7
:1013300011C0A0FE06C0B21488F4280C922C9B1891
:101340000EC0B21460F4B60180E290E00E940E0A72
:10135000B394F7CFB21418F42B1802C0982C212C98
:10136000A4FE10C0B60180E390E00E940E0AA2FE27
:1013700017C0A1FC03C088E790E002C088E590E0B8
:10138000B6010CC08A2D867859F0A1FE02C08BE20E
:1013900001C080E2A7FC8DE2B60190E00E940E0A37
:1013A000891438F4B60180E390E00E940E0A9A9402
:1013B000F7CF8A94F301E80DF11D8081B60190E02A
:1013C0000E940E0A8110F5CF222009F442CEB60108
:1013D00080E290E00E940E0A2A94F6CFF601868100
:1013E000978102C08FEF9FEF2B96E2E10C94C40A25
:1013F000FC010590615070400110D8F780959095E0
:101400008E0F9F1F0895FC016150704001900110E4
:10141000D8F7809590958E0F9F1F08950F931F9377
:10142000CF93DF93FB01238121FD03C08FEF9FEF5B
:101430002CC022FF16C04681578124813581421776
:10144000530744F4A081B1819D012F5F3F4F318349
:1014500020838C93268137812F5F3F4F37832683EC
:1014600014C08B01EC01FB010084F185E02D09958E
:10147000892BE1F6D80116968D919C9117970196CC
:1014800017969C938E931697CE01DF91CF911F9163
:101490000F910895FA01AA27283051F1203181F1E6
:1014A000E8946F936E7F6E5F7F4F8F4F9F4FAF4F6C
:1014B000B1E03ED0B4E03CD0670F781F891F9A1F7F
:1014C000A11D680F791F8A1F911DA11D6A0F711D33
:1014D000811D911DA11D20D009F468943F912AE03F
:1014E000269F11243019305D3193DEF6CF01089527
:1014F000462F4770405D4193B3E00FD0C9F7F6CF58
:10150000462F4F70405D4A3318F0495D31FD40521F
:10151000419302D0A9F7EACFB4E0A69597958795B5
:1015200077956795BA95C9F7009761057105089594
:101530009B01AC010A2E0694579547953795279540
:10154000BA95C9F7620F731F841F951FA01D0895D8
:101550002F923F924F925F926F927F928F929F92C3
:10156000AF92BF92CF92DF92EF92FF920F931F93B1
:10157000CF93DF93CDB7DEB7CA1BDB0B0FB6F89462
:10158000DEBF0FBECDBF09942A88398848885F84A2
:101590006E847D848C849B84AA84B984C884DF8013
:1015A000EE80FD800C811B81AA81B981CE0FD11DF7
:1015B0000FB6F894DEBF0FBECDBFED010895F894CD
:0215C000FFCF5B
:1015C200230002230000526177204144433A202540
:1015D200750D0A0054656D7020446973706C6179F1
:1015E2003A2025640D0A0054656D703A202564B0D6
:1015F200430D0A0A007E306D79335B5F707F7B009A
:00000001FF
