:100000000C9434000C9451000C9451000C94510049
:100010000C9451000C9451000C9451000C9451001C
:100020000C9451000C9451000C9451000C9451000C
:100030000C9451000C9451000C945D030C945100ED
:100040000C9451000C9451000C9451000C945100EC
:100050000C9451000C9451000C9451000C945100DC
:100060000C9451000C94510011241FBECFEFD8E026
:10007000DEBFCDBF11E0A0E0B1E0E6EBF4E102C0ED
:1000800005900D92AA32B107D9F721E0AAE2B1E0BA
:1000900001C01D92AE33B207E1F70E941A010C9421
:1000A000590A0C94000080EC80937C00EAE7F0E0B1
:1000B0008081846880830895ECE7F0E09081907FF0
:1000C00090839081892B8083EAE7F0E080818064CF
:1000D0008083808184FFFDCF20917800809179001A
:1000E00090E0982F8827820F911D0895611113C009
:1000F000DC01ED91FC91119721E030E0A90112960D
:100100000C9002C0440F551F0A94E2F7CA01918176
:10011000892B81830895613099F4DC01ED91FC9184
:10012000119721E030E0A90112960C9002C0440F13
:10013000551F0A94E2F7CA01809591818923818332
:100140000895613099F4DC01ED91FC91119721E063
:1001500030E0A90112960C9002C0440F551F0A947A
:10016000E2F7CA019281892B82830895611114C03C
:10017000DC01ED91FC91119721E030E0A90112968C
:100180000C9002C0440F551F0A94E2F7CA018095F3
:100190009281892382830895623091F4DC01ED918C
:1001A000FC91119721E030E0A90112960C9002C059
:1001B000440F551F0A94E2F7CA019281892782836E
:1001C00008951F93CF93DF93162FFC01C191D19116
:1001D000AE0160E070E01230A8F0DE0181E0208125
:1001E00031812C173D0708F4E901A217B30708F481
:1001F000D901420F531F611D711D32968F5F181375
:10020000EECF01C0DE01AC0FBD1FCB01BA016A1BEE
:100210007B0B81099109212F30E022503109032EF7
:10022000000C440B550B0E941F07C901DF91CF91B1
:100230001F910895CF93DF93CDB7DEB7A2970FB686
:10024000F894DEBF0FBECDBF60E083E091E00E9476
:1002500076000E9482030E94530060E875E280E00D
:1002600090E00E94A4030E94490380E091E00E9474
:10027000EC0261E082E00E94370361E084E00E94CA
:10028000370378946E0123E2C20ED11C0F2EF4E6E0
:100290003F2EF02D0E949B0300912E0110912F0103
:1002A0002091300130913101DC01CB01801B910B99
:1002B000A20BB30B883E9340A105B10578F062E034
:1002C00083E091E00E94A1000E949B0360932E01B5
:1002D00070932F0180933001909331010E949B0312
:1002E00000912A0110912B0120912C0130912D01B8
:1002F000DC01CB01801B910BA20BB30B8436910563
:10030000A105B10538F20E949B0360932A01709306
:100310002B0180932C0190932D018E01075E1F4FBE
:10032000780180E00E945C00F701819391937F0146
:10033000EC15FD05B1F765E0CE0149960E94E1009C
:100340009C01AEE5B1E00E9460072FEF33E040E092
:1003500050E00E94410729013A0181E00E945C00BF
:10036000F801819391938F01EC15FD05B1F765E0DC
:10037000CE0149960E94E1009C01A4EFB1E00E94E9
:1003800060072FEF33E040E050E00E944107490151
:100390005A0163E083E00E942203B301A2016627B1
:1003A000772783E00E94570263E080E00E942203E7
:1003B000B501A4016627772780E00E9457020E94BA
:1003C0000F03A40156954795569547959A01ABE7BB
:1003D000B4E10E94600796958795389E9001399EFA
:1003E000300D1124C401821B930B9F938F939A01AC
:1003F0000E946007969587959F938F939201ADEC2D
:10040000BCEC0E9460079695879596958795969582
:1004100087959C01220F331F880F991F880F991F02
:10042000880F991F820F931F9201281B390BC90156
:100430009F932F9392010E946007969587959695BA
:100440008795969587959F938F9386E091E09F93EC
:100450008F9321E030E02C0F3D1F3F932F930E949C
:100460006F07682FCE0101960E94A6040FB6F8947C
:10047000DEBF0FBECDBF0ECFCF93DF93D82FC62FD9
:1004800060E080913201909133010E94A1008D2F94
:100490000E9457038C2F0E94570361E08091320124
:1004A000909133010E94A100DF91CF9108952F9286
:1004B0003F924F925F926F927F928F929F92AF92F4
:1004C000BF92CF92DF92EF92FF921F93CF93DF9371
:1004D00000D000D000D0CDB7DEB749835A836B83FC
:1004E0007C83411551056105710509F45DC0282E15
:1004F000312C26E0221631040CF056C03E822D82AB
:100500004A015B01C12CD12C7601C39410E00F2E5F
:10051000FAE04F2E512C612C712CF02DC501B40145
:10052000A30192010E941F0749015A014D815E817A
:100530004C5C5E4F5E834D8369817A818B819C81A7
:10054000A70196010E941F07CA01B901A3019201E8
:100550000E941F07FB01E05EFE4F9081ED81FE814E
:100560008081892B80831F5FCC0CDD1CEE1CFF1C5F
:10057000D701C601880F991FAA1FBB1F880F991F9B
:10058000AA1FBB1FC80ED91EEA1EFB1E81149104B0
:10059000A104B10449F09101210F311D3E832D8347
:1005A000263031050CF4BACF26960FB6F894DEBF8C
:1005B0000FBECDBFDF91CF911F91FF90EF90DF90E5
:1005C000CF90BF90AF909F908F907F906F905F90F3
:1005D0004F903F902F900895909333018093320174
:1005E00060E00E94760061E08091320190913301D9
:1005F0000E94A10060E089E00E943C026FE08AE076
:100600000E943C0265E08BE00E943C0261E08CE0CD
:100610000E943C0260E08FE00E943C0208950F932C
:100620001F93CF9304E311E0C0E0F80161918F01C3
:10063000CF5F8C2F0E943C02C630B9F7CF911F913B
:100640000F910895282F30E0A901460F511D24175E
:10065000350764F4F901EC5CFE4F9081907890834B
:100660008F5F282F30E024173507A4F30895662301
:1006700041F0E82FF0E0EC5CFE4F808180688083E1
:100680000895E82FF0E0EC5CFE4F80818F77808347
:100690000895239A259A229A24988CB583608CBD5C
:1006A0008CB580618CBD8CB580648CBD08958EBD89
:1006B0000DB407FEFDCF8EB508951F920F920FB6B1
:1006C0000F9211248F939F93AF93BF9380913A0120
:1006D00090913B01A0913C01B0913D010196A11D7B
:1006E000B11D80933A0190933B01A0933C01B093DC
:1006F0003D01BF91AF919F918F910F900FBE0F90D1
:100700001F90189584B5826084BD89EF87BD37B589
:1007100025B381E090E002C0880F991F3A95E2F777
:10072000822B85BBEEE6F0E080818260808385B518
:10073000836085BD089560913A0170913B0180917D
:100740003C0190913D0108954F925F926F927F928C
:100750008F929F92AF92BF92CF92DF92EF92FF92D1
:10076000CF93DF93CDB7DEB72C970FB6F894DEBFEB
:100770000FBECDBF6B017C014B015C01880C991C45
:10078000AA1CBB1C880C991CAA1CBB1C880C991C9D
:10079000AA1CBB1CC501B401660F771F881F991FD7
:1007A0000E94D7059B01AC0160E074E284E79BE402
:1007B0000E942F0520E030E040E85FE30E94C20481
:1007C0000E94D2060E94A80569877A878B879C873A
:1007D000C501B4010E94D7059B01AC0160E074E241
:1007E00084E79BE40E942F0520E030E040E85FE3CF
:1007F0000E94C2040E94D2060E94A8052B013C015F
:10080000C701B6010E94D7056B017C0129853A8595
:100810002F5F3F4F22953295307F3227207F32273E
:1008200040E050E00F2E812CF4E29F2EF4EFAF2E2B
:10083000B12CF02DC501B4010E941F07CA01B901F6
:100840000E94D705A70196010E942F0520E030E005
:1008500040E85FE30E94C20420E030E048EC52E44C
:100860000E94650669837A838B839C8392012F5F44
:100870003F4F220F331F220F331F220F331F40E041
:1008800050E0C501B4010E941F07CA01B9010E94CE
:10089000D705A70196010E942F0520E030E040E82F
:1008A0005FE30E94C20420E030E048EC52E40E9482
:1008B00065066D837E838F83988769817A818B81BA
:1008C0009C81CD80DE80EF80F8840E94A1055B01D1
:1008D000772324F4AA24BB24A61AB70AC701B601B9
:1008E0000E94A1059B01772324F422273327261B8E
:1008F000370B2A153B053CF089859A859093C500F6
:100900008093C40009C0E0ECF0E0808182608083C5
:100910005092C5004092C400E1ECF0E08081886014
:1009200080832C960FB6F894DEBF0FBECDBFDF914B
:10093000CF91FF90EF90DF90CF90BF90AF909F90BE
:100940008F907F906F905F904F900895CF93DF933B
:100950006623A9F0DC016150262F30E02F5F3F4F66
:10096000AC01420F531FE0ECF0E0C6ECD0E02D915B
:10097000908195FFFDCF2883A417B507C1F7DF91BC
:10098000CF9108955058BB27AA270E94DA040C94EF
:100990002B060E941D0638F00E94240620F039F430
:1009A0009F3F19F426F40C941A060EF4E095E7FB29
:1009B0000C941406E92F0E943C0658F3BA176207FC
:1009C00073078407950720F079F4A6F50C945E066A
:1009D0000EF4E0950B2EBA2FA02D0B01B90190015A
:1009E0000C01CA01A0011124FF27591B99F0593F9E
:1009F00050F4503E68F11A16F040A22F232F342FE6
:100A00004427585FF3CF469537952795A795F04033
:100A10005395C9F77EF41F16BA0B620B730B840B48
:100A2000BAF09150A1F0FF0FBB1F661F771F881F00
:100A3000C2F70EC0BA0F621F731F841F48F4879558
:100A400077956795B795F7959E3F08F0B0CF93954A
:100A5000880F08F09927EE0F9795879508950E94C3
:100A600043050C942B060E94240658F00E941D0694
:100A700040F029F45F3F29F00C94140651110C94B6
:100A80005F060C941A060E943C0668F39923B1F3A2
:100A9000552391F3951B550BBB27AA2762177307A4
:100AA000840738F09F5F5F4F220F331F441FAA1F38
:100AB000A9F335D00E2E3AF0E0E832D091505040F4
:100AC000E695001CCAF72BD0FE2F29D0660F771FA2
:100AD000881FBB1F261737074807AB07B0E809F088
:100AE000BB0B802DBF01FF2793585F4F3AF09E3F0D
:100AF000510578F00C9414060C945F065F3FE4F304
:100B0000983ED4F3869577956795B795F7959F5F4F
:100B1000C9F7880F911D9695879597F90895E1E09B
:100B2000660F771F881FBB1F621773078407BA07FA
:100B300020F0621B730B840BBA0BEE1F88F7E09555
:100B400008950E94A8056894B1110C945F06089559
:100B50000E94440688F09F5798F0B92F9927B75103
:100B6000B0F0E1F0660F771F881F991F1AF0BA9551
:100B7000C9F714C0B13091F00E945E06B1E008954B
:100B80000C945E06672F782F8827B85F39F0B93F3D
:100B9000CCF3869577956795B395D9F73EF4909504
:100BA0008095709561957F4F8F4F9F4F0895E89482
:100BB00009C097FB3EF490958095709561957F4FA5
:100BC0008F4F9F4F9923A9F0F92F96E9BB27939553
:100BD000F695879577956795B795F111F8CFFAF463
:100BE000BB0F11F460FF1BC06F5F7F4F8F4F9F4F94
:100BF00016C0882311F096E911C0772321F09EE8F2
:100C0000872F762F05C0662371F096E8862F70E057
:100C100060E02AF09A95660F771F881FDAF7880F31
:100C20009695879597F9089597F99F6780E870E002
:100C300060E008959FEF80EC089500240A94161652
:100C4000170618060906089500240A9412161306BA
:100C5000140605060895092E0394000C11F4882348
:100C600052F0BB0F40F4BF2B11F460FF04C06F5F64
:100C70007F4F8F4F9F4F089557FD9058440F551F3A
:100C800059F05F3F71F04795880F97FB991F61F00E
:100C90009F3F79F087950895121613061406551F85
:100CA000F2CF4695F1DF08C0161617061806991FF1
:100CB000F1CF86957105610508940895E894BB27E6
:100CC00066277727CB0197F908950E9478060C9440
:100CD0002B060E941D0638F00E94240620F0952362
:100CE00011F00C9414060C941A0611240C945F064F
:100CF0000E943C0670F3959FC1F3950F50E0551F7D
:100D0000629FF001729FBB27F00DB11D639FAA2760
:100D1000F00DB11DAA1F649F6627B00DA11D661FAF
:100D2000829F2227B00DA11D621F739FB00DA11DD0
:100D3000621F839FA00D611D221F749F3327A00D8A
:100D4000611D231F849F600D211D822F762F6A2F26
:100D500011249F5750409AF0F1F088234AF0EE0F8B
:100D6000FF1FBB1F661F771F881F91505040A9F7B8
:100D70009E3F510580F00C9414060C945F065F3F73
:100D8000E4F3983ED4F3869577956795B795F795F4
:100D9000E7959F5FC1F7FE2B880F911D969587956C
:100DA00097F908950E944406E8F09E37E8F09639D6
:100DB000B8F49E3848F4672F782F8827985FF9CFCA
:100DC00086957795679593959539D0F3B62FB17041
:100DD0006B0F711D811D20F487957795679593950D
:100DE0000C94F6060C9411070C945F06882371F49A
:100DF000772321F09850872B762F07C0662311F4B4
:100E000099270DC09051862B70E060E02AF09A95EA
:100E1000660F771F881FDAF7880F9695879597F9E1
:100E200008959F3F31F0915020F48795779567950D
:100E3000B795880F911D9695879597F90895A1E22A
:100E40001A2EAA1BBB1BFD010DC0AA1FBB1FEE1F44
:100E5000FF1FA217B307E407F50720F0A21BB30B8F
:100E6000E40BF50B661F771F881F991F1A9469F70B
:100E700060957095809590959B01AC01BD01CF0167
:100E80000895052E97FB1EF400940E94580757FD05
:100E900007D00E941F0707FC03D04EF40C9458079C
:100EA00050954095309521953F4F4F4F5F4F089596
:100EB00090958095709561957F4F8F4F9F4F0895C6
:100EC000A29FB001B39FC001A39F700D811D11248B
:100ED000911DB29F700D811D1124911D0895AEE0EA
:100EE000B0E0E5E7F7E00C94300A0D891E8986E052
:100EF0008C831A8309838FEF9FE79E838D83AE01D6
:100F0000475E5F4F6F89788DCE0101960E949107F1
:100F1000EF81F885E00FF11F10822E96E4E00C942B
:100F20004C0AABE0B0E0E7E9F7E00C94220A6C0170
:100F30007B018A01FC0117821682838181FFCCC16B
:100F4000CE0101963C01F6019381F70193FD859155
:100F500093FF81917F01882309F4BAC1853239F466
:100F600093FD859193FF81917F01853229F4B6012C
:100F700090E00E948809E7CF912C212C312CFFE1D1
:100F8000F315D8F08B3279F038F4803279F083326F
:100F9000A1F4232D20611DC08D3261F0803369F4EE
:100FA000232D216016C0832D8260382EE32DE4604E
:100FB0003E2E2AC0F32DF8601DC037FC2DC020ED59
:100FC000280F2A3040F08E32B9F436FC81C1232D2F
:100FD0002064322E19C036FE06C08AE0989E200D8D
:100FE0001124922E11C0EAE02E9E200D1124222EF3
:100FF000F32DF0623F2E08C08C3621F4832D8068DB
:10100000382E02C0883641F4F70193FD859193FF95
:1010100081917F018111B3CF982F9F7D955493309B
:1010200028F40C5F1F4F9FE399830DC0833631F086
:10103000833771F0833509F059C021C0F8018081F0
:1010400089830E5F1F4F88248394912C530113C012
:101050002801F2E04F0E511CF801A080B18036FE4D
:1010600003C0692D70E002C06FEF7FEFC5010E94E1
:101070007D094C018201F32DFF773F2E16C0280118
:1010800022E0420E511CF801A080B18036FE03C060
:10109000692D70E002C06FEF7FEFC5010E947209F9
:1010A0004C01F32DF0683F2E820133FC1BC0822DD2
:1010B00090E088169906B0F4B60180E290E00E94B4
:1010C00088092A94F4CFF50137FC859137FE819188
:1010D0005F01B60190E00E94880921102A9421E066
:1010E000821A91088114910471F7E8C0843611F0D6
:1010F000893641F5F80137FE07C060817181828130
:1011000093810C5F1F4F08C060817181072E000C16
:10111000880B990B0E5F1F4FF32DFF763F2E97FF25
:1011200009C090958095709561957F4F8F4F9F4F27
:10113000F0683F2E2AE030E0A3010E94C409882E07
:10114000861845C0853731F4232D2F7EB22E2AE034
:1011500030E025C0932D997FB92E8F36C1F018F459
:10116000883579F0B5C0803719F0883721F0B0C0E4
:10117000E92FE061BE2EB4FE0DC0FB2DF460BF2E42
:1011800009C034FE0AC0292F2660B22E06C028E00E
:1011900030E005C020E130E002C020E132E0F8019B
:1011A000B7FE07C060817181828193810C5F1F4F00
:1011B00006C06081718180E090E00E5F1F4FA30147
:1011C0000E94C409882E8618FB2DFF773F2E36FE1D
:1011D0000DC0232D2E7FA22E891458F434FE0BC08F
:1011E00032FC09C0832D8E7EA82E05C0B82CA32CFE
:1011F00003C0B82C01C0B92CA4FE0FC0FE01E80D3D
:10120000F11D8081803321F49A2D997EA92E09C089
:10121000A2FE06C0B394B39404C08A2D867809F068
:10122000B394A3FC11C0A0FE06C0B21488F4280C2D
:10123000922C9B180EC0B21460F4B60180E290E0CC
:101240000E948809B394F7CFB21418F42B1802C087
:10125000982C212CA4FE10C0B60180E390E00E94DF
:101260008809A2FE17C0A1FC03C088E790E002C075
:1012700088E590E0B6010CC08A2D867859F0A1FE71
:1012800002C08BE201C080E2A7FC8DE2B60190E0D3
:101290000E948809891438F4B60180E390E00E9426
:1012A00088099A94F7CF8A94F301E80DF11D8081A3
:1012B000B60190E00E9488098110F5CF222009F440
:1012C00042CEB60180E290E00E9488092A94F6CFCF
:1012D000F6018681978102C08FEF9FEF2B96E2E1A6
:1012E0000C943E0AFC010590615070400110D8F743
:1012F000809590958E0F9F1F0895FC01615070405E
:1013000001900110D8F7809590958E0F9F1F08953A
:101310000F931F93CF93DF93FB01238121FD03C024
:101320008FEF9FEF2CC022FF16C04681578124818A
:1013300035814217530744F4A081B1819D012F5F8D
:101340003F4F318320838C93268137812F5F3F4F1E
:101350003783268314C08B01EC01FB010084F185E7
:10136000E02D0995892BE1F6D80116968D919C9177
:101370001797019617969C938E931697CE01DF913F
:10138000CF911F910F910895FA01AA27283051F1AA
:10139000203181F1E8946F936E7F6E5F7F4F8F4FA6
:1013A0009F4FAF4FB1E03ED0B4E03CD0670F781F05
:1013B000891F9A1FA11D680F791F8A1F911DA11DEA
:1013C0006A0F711D811D911DA11D20D009F4689423
:1013D0003F912AE0269F11243019305D3193DEF6CB
:1013E000CF010895462F4770405D4193B3E00FD081
:1013F000C9F7F6CF462F4F70405D4A3318F0495D6C
:1014000031FD4052419302D0A9F7EACFB4E0A6954E
:101410009795879577956795BA95C9F70097610570
:10142000710508959B01AC010A2E069457954795C6
:1014300037952795BA95C9F7620F731F841F951FBB
:10144000A01D08952F923F924F925F926F927F92CC
:101450008F929F92AF92BF92CF92DF92EF92FF92C4
:101460000F931F93CF93DF93CDB7DEB7CA1BDB0B70
:101470000FB6F894DEBF0FBECDBF09942A88398815
:1014800048885F846E847D848C849B84AA84B9841C
:10149000C884DF80EE80FD800C811B81AA81B98128
:1014A000CE0FD11D0FB6F894DEBF0FBECDBFED013C
:0614B0000895F894FFCF3F
:1014B600230002230000563A253032752E2530319E
:1014C6007509413A253031752E253032750D0A00E1
:0A14D6007E306D79335B5F707F7B21
:00000001FF
