S012000050616E656C6D657465722E7372656305
S11300000C9434000C9451000C9451000C94510045
S11300100C9451000C9451000C9451000C94510018
S11300200C9451000C9451000C9451000C94510008
S11300300C9451000C9451000C9492010C945100B6
S11300400C9451000C9451000C9451000C945100E8
S11300500C9451000C9451000C9451000C945100D8
S11300600C9451000C94510011241FBECFEFD8E022
S1130070DEBFCDBF11E0A0E0B1E0E8EBFAE002C0E2
S113008005900D92AA30B107D9F721E0AAE0B1E0BA
S113009001C01D92A831B207E1F70E9476000C94CA
S11300A05A050C94000080EC80937C00EAE7F0E0B1
S11300B08081846880830895ECE7F0E09081907FEC
S11300C090839081892B8083EAE7F0E080818064CB
S11300D08083808184FFFDCF209178008091790016
S11300E090E0982F8827820F911D0895209A0E94EE
S11300F0B7010E947E010E944F010E94530080E8D4
S113010095E20E94D901C1E00E94D00100910A0148
S113011010910B0120910C0130910D01DC01CB01F8
S1130120801B910BA20BB30B883E9340A105B10534
S113013058F385B18C2785B90E94D00160930A01D8
S113014070930B0180930C0190930D0181E090E07A
S11301500E945C00482F60E070E0CB010E94BE006A
S11301600E946B01D1CFCF93C62F2A980E948C0195
S11301708C2F0E948C012A9ACF9108952F923F923E
S11301806F927F928F929F92AF92BF92CF92DF92A3
S1130190EF92FF920F931F93CF93DF9300D000D081
S11301A01F92CDB7DEB76A837B838C839D831982CC
S11301B0DC01CB01892B8A2B8B2B09F45AC0242E0A
S11301C0312C8981D101A80FB11D16970CF051C0B3
S11301D08A809B80AC80BD80C12CD12C7601C394D5
S11301E0F101EE5EFE4F3F01C501B4012AE030E0AB
S11301F040E050E00E94380549015A018981830199
S1130200080F111D6A817B818C819D81A701960154
S11302100E943805CA01B9012AE030E040E050E00C
S11302200E943805FB01E050FF4F8081D8018C9378
S113023089818F5F8983CC0CDD1CEE1CFF1CD701E8
S1130240C601880F991FAA1FBB1F880F991FAA1FD9
S1130250BB1FC80ED91EEA1EFB1E81149104A10403
S1130260B10439F08981F101E80FF11D36970CF4DE
S1130270BBCF0F900F900F900F900F90DF91CF9105
S11302801F910F91FF90EF90DF90CF90BF90AF90B0
S11302909F908F907F906F903F902F900895229A17
S11302A02A9A60E089E00E94B3006FE08AE00E942D
S11302B0B30065E08BE00E94B30061E08CE00E9433
S11302C0B30060E080EF0E94B3006091020185E01A
S11302D00E94B30008950F931F93CF9302E111E09E
S11302E0C0E0F80161918F01CF5F8C2F0E94B300B1
S11302F0C630B9F7CF911F910F910895239A259A8B
S1130300229A24988CB583608CBD8CB580618CBD99
S11303108CB580648CBD08958EBD0DB407FEFDCFF1
S11303208EB508951F920F920FB60F9211248F93DA
S11303309F93AF93BF9380910E0190910F01A09171
S11303401001B09111010196A11DB11D80930E0100
S113035090930F01A0931001B0931101BF91AF913D
S11303609F918F910F900FBE0F901F90189584B599
S1130370826084BD89EF87BD37B525B381E090E005
S113038002C0880F991F3A95E2F7822B85BBEEE6EF
S1130390F0E080818260808385B5836085BD0895A7
S11303A060910E0170910F018091100190911101E3
S11303B008954F925F926F927F928F929F92AF9225
S11303C0BF92CF92DF92EF92FF92CF93DF93CDB79C
S11303D0DEB72C970FB6F894DEBF0FBECDBF6B010E
S11303E07C014B015C01880C991CAA1CBB1C880C69
S11303F0991CAA1CBB1C880C991CAA1CBB1CC501FB
S1130400B401660F771F881F991F0E94F0039B0198
S1130410AC0160E074E284E79BE40E94480320E0BE
S113042030E040E85FE30E94DB020E94EB040E949C
S1130430C10369877A878B879C87C501B4010E94B1
S1130440F0039B01AC0160E074E284E79BE40E944A
S1130450480320E030E040E85FE30E94DB020E94B2
S1130460EB040E94C1032B013C01C701B6010E94A9
S1130470F0036B017C0129853A852F5F3F4F22955C
S11304803295307F3227207F322740E050E00F2E14
S1130490812CF4E29F2EF4EFAF2EB12CF02DC50188
S11304A0B4010E943805CA01B9010E94F003A701F2
S11304B096010E94480320E030E040E85FE30E9498
S11304C0DB0220E030E048EC52E40E947E046983C1
S11304D07A838B839C8392012F5F3F4F22953295C1
S11304E0307F3227207F322740E050E0C501B4013D
S11304F00E943805CA01B9010E94F003A7019601C0
S11305000E94480320E030E040E85FE30E94DB0201
S113051020E030E048EC52E40E947E046D837E8348
S11305208F83988769817A818B819C81CD80DE80DD
S1130530EF80F8840E94BA035B01772324F4AA2491
S1130540BB24A61AB70AC701B6010E94BA039B01CD
S1130550772324F422273327261B370B2A153B0540
S11305603CF089859A859093C5008093C40009C0A6
S1130570E0ECF0E08081826080835092C50040927C
S1130580C400E1ECF0E08081886080832C960FB693
S1130590F894DEBF0FBECDBFDF91CF91FF90EF90F7
S11305A0DF90CF90BF90AF909F908F907F906F908F
S11305B05F904F9008955058BB27AA270E94F302DA
S11305C00C9444040E94360438F00E943D0420F048
S11305D039F49F3F19F426F40C9433040EF4E09597
S11305E0E7FB0C942D04E92F0E94550458F3BA1725
S11305F0620773078407950720F079F4A6F50C9435
S113060077040EF4E0950B2EBA2FA02D0B01B9013F
S113061090010C01CA01A0011124FF27591B99F074
S1130620593F50F4503E68F11A16F040A22F232F80
S1130630342F4427585FF3CF469537952795A795D0
S1130640F0405395C9F77EF41F16BA0B620B730B77
S1130650840BBAF09150A1F0FF0FBB1F661F771FE8
S1130660881FC2F70EC0BA0F621F731F841F48F49D
S1130670879577956795B795F7959E3F08F0B0CF26
S11306809395880F08F09927EE0F9795879508950D
S11306900E945C030C9444040E943D0458F00E94A0
S11306A0360440F029F45F3F29F00C942D045111D5
S11306B00C9478040C9433040E94550468F3992331
S11306C0B1F3552391F3951B550BBB27AA2762174A
S11306D07307840738F09F5F5F4F220F331F441F57
S11306E0AA1FA9F335D00E2E3AF0E0E832D091508B
S11306F05040E695001CCAF72BD0FE2F29D0660F78
S1130700771F881FBB1F261737074807AB07B0E8BA
S113071009F0BB0B802DBF01FF2793585F4F3AF0C0
S11307209E3F510578F00C942D040C9478045F3F9F
S1130730E4F3983ED4F3869577956795B795F79546
S11307409F5FC9F7880F911D9695879597F908952E
S1130750E1E0660F771F881FBB1F621773078407CA
S1130760BA0720F0621B730B840BBA0BEE1F88F7D9
S1130770E09508950E94C1036894B1110C94780423
S113078008950E945D0488F09F5798F0B92F992727
S1130790B751B0F0E1F0660F771F881F991F1AF068
S11307A0BA95C9F714C0B13091F00E947704B1E052
S11307B008950C947704672F782F8827B85F39F051
S11307C0B93FCCF3869577956795B395D9F73EF401
S11307D090958095709561957F4F8F4F9F4F0895A9
S11307E0E89409C097FB3EF49095809570956195C7
S11307F07F4F8F4F9F4F9923A9F0F92F96E9BB277D
S11308009395F695879577956795B795F111F8CFF8
S1130810FAF4BB0F11F460FF1BC06F5F7F4F8F4F63
S11308209F4F16C0882311F096E911C0772321F059
S11308309EE8872F762F05C0662371F096E8862FF1
S113084070E060E02AF09A95660F771F881FDAF748
S1130850880F9695879597F9089597F99F6780E88B
S113086070E060E008959FEF80EC089500240A94FE
S11308701616170618060906089500240A94121677
S11308801306140605060895092E0394000C11F4AA
S1130890882352F0BB0F40F4BF2B11F460FF04C057
S11308A06F5F7F4F8F4F9F4F089557FD9058440FB0
S11308B0551F59F05F3F71F04795880F97FB991FBB
S11308C061F09F3F79F08795089512161306140678
S11308D0551FF2CF4695F1DF08C016161706180605
S11308E0991FF1CF86957105610508940895E894E0
S11308F0BB2766277727CB0197F908950E949104B7
S11309000C9444040E94360438F00E943D0420F004
S1130910952311F00C942D040C94330411240C949D
S113092078040E94550470F3959FC1F3950F50E02D
S1130930551F629FF001729FBB27F00DB11D639F8D
S1130940AA27F00DB11DAA1F649F6627B00DA11D33
S1130950661F829F2227B00DA11D621F739FB00DD9
S1130960A11D621F839FA00D611D221F749F332749
S1130970A00D611D231F849F600D211D822F762FE2
S11309806A2F11249F5750409AF0F1F088234AF0BF
S1130990EE0FFF1FBB1F661F771F881F915050402B
S11309A0A9F79E3F510580F00C942D040C94780413
S11309B05F3FE4F3983ED4F3869577956795B795B2
S11309C0F795E7959F5FC1F7FE2B880F911D9695CC
S11309D0879597F908950E945D04E8F09E37E8F042
S11309E09639B8F49E3848F4672F782F8827985F93
S11309F0F9CF86957795679593959539D0F3B62F6A
S1130A00B1706B0F711D811D20F4879577956795E3
S1130A1093950C940F050C942A050C947804882360
S1130A2071F4772321F09850872B762F07C0662323
S1130A3011F499270DC09051862B70E060E02AF0E4
S1130A409A95660F771F881FDAF7880F9695879512
S1130A5097F908959F3F31F0915020F48795779549
S1130A606795B795880F911D9695879597F9089581
S1130A70A1E21A2EAA1BBB1BFD010DC0AA1FBB1F9E
S1130A80EE1FFF1FA217B307E407F50720F0A21B10
S1130A90B30BE40BF50B661F771F881F991F1A947D
S1130AA069F760957095809590959B01AC01BD01A7
S10B0AB0CF010895F894FFCF73
S10D0AB87E306D79335B5F707F7B45
S9030000FC
